{
  "contractName": "Balances",
  "abi": [
    {
      "constant": true,
      "inputs": [
        {
          "name": "_tokens",
          "type": "address[]"
        },
        {
          "name": "_customer",
          "type": "address"
        }
      ],
      "name": "getBalances",
      "outputs": [
        {
          "components": [
            {
              "name": "token",
              "type": "address"
            },
            {
              "name": "balance",
              "type": "uint256"
            }
          ],
          "name": "",
          "type": "tuple[]"
        }
      ],
      "payable": false,
      "stateMutability": "view",
      "type": "function",
      "signature": "0xd1c07028"
    }
  ],
  "bytecode": "0x608060405234801561001057600080fd5b5061057e806100206000396000f3fe608060405260043610610041576000357c0100000000000000000000000000000000000000000000000000000000900463ffffffff168063d1c0702814610046575b600080fd5b34801561005257600080fd5b5061006d60048036036100689190810190610310565b610083565b60405161007a9190610450565b60405180910390f35b60608083516040519080825280602002602001820160405280156100c157816020015b6100ae610233565b8152602001906001900390816100a65790505b50905060008090505b845181101561022857600085828151811015156100e357fe5b90602001906020020151905085828151811015156100fd57fe5b90602001906020020151838381518110151561011557fe5b906020019060200201516000019073ffffffffffffffffffffffffffffffffffffffff16908173ffffffffffffffffffffffffffffffffffffffff16815250508073ffffffffffffffffffffffffffffffffffffffff166370a08231866040518263ffffffff167c01000000000000000000000000000000000000000000000000000000000281526004016101aa9190610435565b60206040518083038186803b1580156101c257600080fd5b505afa1580156101d6573d6000803e3d6000fd5b505050506040513d601f19601f820116820180604052506101fa9190810190610364565b838381518110151561020857fe5b9060200190602002015160200181815250505080806001019150506100ca565b508091505092915050565b6040805190810160405280600073ffffffffffffffffffffffffffffffffffffffff168152602001600081525090565b600061026f8235610528565b905092915050565b600082601f830112151561028a57600080fd5b813561029d6102988261049f565b610472565b915081818352602084019350602081019050838560208402820111156102c257600080fd5b60005b838110156102f257816102d88882610263565b8452602084019350602083019250506001810190506102c5565b5050505092915050565b6000610308825161053a565b905092915050565b6000806040838503121561032357600080fd5b600083013567ffffffffffffffff81111561033d57600080fd5b61034985828601610277565b925050602061035a85828601610263565b9150509250929050565b60006020828403121561037657600080fd5b6000610384848285016102fc565b91505092915050565b610396816104ec565b82525050565b60006103a7826104d4565b8084526020840193506103b9836104c7565b60005b828110156103eb576103cf8683516103f7565b6103d8826104df565b91506040860195506001810190506103bc565b50849250505092915050565b60408201600082015161040d600085018261038d565b5060208201516104206020850182610426565b50505050565b61042f8161051e565b82525050565b600060208201905061044a600083018461038d565b92915050565b6000602082019050818103600083015261046a818461039c565b905092915050565b6000604051905081810181811067ffffffffffffffff8211171561049557600080fd5b8060405250919050565b600067ffffffffffffffff8211156104b657600080fd5b602082029050602081019050919050565b6000602082019050919050565b600081519050919050565b6000602082019050919050565b60006104f7826104fe565b9050919050565b600073ffffffffffffffffffffffffffffffffffffffff82169050919050565b6000819050919050565b6000610533826104fe565b9050919050565b600081905091905056fea265627a7a723058208e7cecb0d3c8f39364a2466419fb55b4b7905febd2fc9ecb6e6c48d85697cef26c6578706572696d656e74616cf50037",
  "source": "// SPDX-License-Identifier: MIT\npragma experimental ABIEncoderV2;\npragma solidity >=0.4.22 <0.9.0;\n\ninterface ERC20 {\n    function balanceOf(address account) external view returns (uint256);\n}\n\ncontract Balances {\n    struct Amount{\n        address token;\n        uint256 balance;\n    }\n\n    function getBalances(address[] memory _tokens, address _customer)\n        public view\n        returns (Amount[] memory)\n    {\n        Amount[] memory amounts = new Amount[](_tokens.length);\n\n        for(uint i=0; i<_tokens.length;i++){\n            ERC20 token = ERC20(_tokens[i]);\n            amounts[i].token = _tokens[i];\n            amounts[i].balance = token.balanceOf(_customer);\n        }\n        return amounts;\n    }\n}",
  "sourcePath": "/Users/justinaquak/Documents/Repos/code-challenge/src/problem5/contracts/Balances.sol",
  "compiler": {
    "name": "solc",
    "version": "0.5.0+commit.1d4f565a.Emscripten.clang"
  },
  "schemaVersion": "3.0.1",
  "updatedAt": "2022-09-11T03:55:19.010Z",
  "devdoc": {
    "methods": {}
  },
  "userdoc": {
    "methods": {}
  }
}